:100000006F006071000000004A0100004C01000018
:1000100000000000000000000000000000000000E0
:1000200000000000000000000000000000000000D0
:10003000140700000000000014070000000000008A
:100040001407000014070000140700001407000044
:100050008C040000140700001407000014070000BF
:100060001407000014070000140700001407000024
:100070001407000014070000140700001407000014
:100080001407000014070000140700001407000004
:10009000140700001407000014070000000000000F
:1000A000511126C022C206C4828282441244A24058
:1000B000310182802A86014593F6150091C232955E
:1000C00085810606F5F9828000000000634E050276
:1000D00063C305042E86AA857D5515C285466378BF
:1000E000B6006356C00006068606E36CB6FE014500
:1000F00063E4C500918D558D85820582F5FA828075
:100100008682C93F2E8582823305A04063D70500D1
:10011000B305B040C1B7B305B0408682653F330533
:10012000A0408282868263C70500634905005D376F
:100130002E858282B305B040E35B05FE3305A04007
:10014000513F3305B0408282000001A001A0EFF2D0
:100150003FF537540040AA84930704403E85B70515
:100160000200EF00500DB7570040938707407DF520
:1001700013050440854537040300EF00B003050470
:10018000B757004013850740A285EF007009B757A5
:1001900000407DD5014693050003138507403704D1
:1001A0000700EF00D00613042408B757004013855A
:1001B0000740A285EF00D006B75700407DD5A68541
:1001C0001385074037040700EF00B0031304440809
:1001D000B7540040A28513850440EF0070046DD928
:1001E00085451385044037040300EF00A07C050417
:1001F000B7540040A28513850440EF0070026DD90A
:100200000546930500031385044037040300EF00FF
:100210001000090437550040A28513050540EF0082
:1002200030006DD9B70400109384040437540040A3
:10023000A68513050440EF00100009CD1305044006
:10024000EF00607CAA84854513050440EF00207808
:100250002685A1BD814513050440EF00E078F9B77C
:10026000EFF21FE41301C1FC85451305100302D210
:1002700002D402D602D802C002C2EF005010854557
:1002800037052000EF00901191470D44F1442C00F8
:10029000371501407C8426C822C649232C0026C875
:1002A000371501408944648422C68D2B9307800250
:1002B000371501403EC82C00A147130505407C843A
:1002C00022C6A92B8D450D45C12BA14705444810D9
:1002D0003ED23ED622D802D4C129930740110A85C6
:1002E00022C27C804481EF00C078930740063ECA5A
:1002F000B707FFBF3ECCB707000437540040E10703
:100300003ECE4C089167130504402310F10275237B
:10031000130504408545EF006068854513050440DA
:10032000EF00806C3D452535AA8537150000130583
:100330000538EF10C0021301410385BBEFF25FD611
:10034000B75700402A84AE84138707403A85B70523
:100350000200EF00406EB7570040138707407DF55D
:1003600085453A85812DB70703008507375700403B
:10037000BE85130507406D25B707030037570040BA
:1003800085076DD5014693050003130507404125F8
:10039000B70707009387270837570040BE85130526
:1003A0000740BD2DB7070700375700409387270840
:1003B00065D5A28513050740A925B70707009387D0
:1003C000470837540040BE8513050440912DB707F8
:1003D00007009387470875D5B70500109385050872
:1003E00013050440892D09C5A68513050440112D68
:1003F0003704070013044408B7540040A28513854E
:100400000440392D75D9854513850440C92371B938
:10041000EFF21FC91165111185451305050202C0D0
:1004200002C202C402C602C802CA02CCEF00207592
:10043000930700027C80371401408D473EC28A85B5
:10044000E147130504403EC4D12E930700047C808D
:100450008A859147130504403EC4C926F167374495
:100460000140938707203EC66C00B7070C001305B8
:1004700004803ECA02C8231C0100EF0000748545B9
:1004800013050480EF003000710105B121455126AC
:10049000371500001305C53AEF00706C730020306B
:1004A000EFF21FC00545C9231124EF00500071650C
:1004B00013050520EF005007B707002083A50701AB
:1004C000371500001305C53BEF007069C92CAA85DC
:1004D000371500001305C53CEF007068153F154542
:1004E000EF00B000B53B9305400713050002B93596
:1004F00013057002A939130560029139AA853715D1
:1005000000001305C53DEF009065914513055002AD
:100510003535A5451305000315359305900E1305D4
:100520001003293D9305900613052003013D9945CD
:10053000130530032135814513054003013593052B
:10054000000413053002DD3B930500021305F003A0
:10055000F5333714000013057003D53E93778500FB
:1005600081CB371500001305853FEF00505FE5B7DD
:10057000418975D113050441CDBFEFF27FB2371425
:1005800002401C403707FFF8611193E717001CC0B9
:100590005C404145F98F5CC01C403707F7FE7D1772
:1005A000F98F1CC01C403707FCFF7D17F98F1CC05A
:1005B0005C4041777D17F98F5CC0B7079F001CC472
:1005C00029231C4C3706020093E707021CCCB717FF
:1005D000014003A70740938607401377F7F023A055
:1005E000E74003A707401367070823A0E7408947B0
:1005F0009CCA02C002C21C4C37070140A16693E7A7
:1006000017001CCC5C43D58F5CC31C404167B716F8
:100610000240D98F1CC009679C42F18F3EC28247BD
:1006200085073EC0924781E78247E397E7FEB71709
:1006300002409C431397E7006358070685473EC274
:10064000124785476310F706B72702409843C176E3
:10065000FD16719B98C398431367170098C3B7178B
:100660000240D843D8C3D843758FD8C3D843C16696
:10067000558FD8C39843B7060001558F98C3984348
:1006800093166700E3DD06FED843B7160240719B60
:10069000D8C3D84313672700D8C32147DC42B18BA6
:1006A000E39EE7FE210111B402C259BFEFF25F9F42
:1006B000371702405C43370400209146B18B130486
:1006C00004016385D700A1466380D704B7376E0164
:1006D000938707601CC0B7160240DC420840918334
:1006E00013F7F700B707002093870700BA978C230A
:1006F000DC4293F5F50F93F707083357B50099E3FC
:10070000D13A2A8718C055B25C43B777DC02938789
:1007100007C0C9B701A0970100209381211213815E
:1007200081FC171500001305E5D09705002093857F
:10073000658D170600201306669063FAC5008322B4
:10074000050023A0550011059105E3EAC5FE170534
:1007500000201305A58E938581806377B500232043
:1007600005001105E36DB5FEB722000093820288F3
:10077000739002308D427390428097020000938202
:10078000628893E2320073905230EFF01FDF9702DD
:100790000000938222D17390123473002030B7F797
:1007A000FF1F03A5477C82805841032305004C4569
:1007B00037060140930706403E979346F3FFB1C5C5
:1007C00083250640F58D2320B640D043F18ED4C357
:1007D0001443B3E6660014C3184190479346F7FFED
:1007E000758E90C7D047F18ED4C7144541466399A2
:1007F000C6009447D98E94C7D447558FD8C78280F6
:10080000B6979443558F98C382801C43F58F1CC3C1
:100810008280B707014023AAA7408280944593F7BE
:10082000060193F2F60081C7DC41B3E2F20083D304
:10083000050093F7F30FA5C303230500611122C23E
:1008400026C08147130480029304800405473316B1
:10085000F70033F7C3006312E602939527003D4784
:100860003317B7001347F7FF33736700B395B20030
:1008700033E36500639D860050C985072147E397F0
:10088000E7FC124423206500824421018280E39624
:1008900096FE10C9DDB782803707014014478605F0
:1008A0008D47B397B70093C7F7FFF58F1CC71C4759
:1008B000B315B500DD8D0CC78280EFF26FFE11110C
:1008C00046212A8428002EC0112CC246C204C180B1
:1008D00093F404FCB7450F00938505243685C204C4
:1008E00036C2C180EFF00FFF458D420541814AA01D
:1008F0001E209246C207C183F99BC207C1831EA076
:1009000082479043E1679387076A9315160063E671
:10091000C7043685EFF00FFCAA8742054181914656
:100920006373D50091471395070141814AAC1E209E
:10093000024793E717001EA01E2056233227C20746
:10094000C183D18E93F757BFD58F1EA016275E2780
:10095000D58F1EA471016FF04FF58247EA23B1676E
:10096000FD176310F502B2953685EFF0AFF642053C
:1009700041819317450199E313651500A1675D8DCA
:1009800075B7B387C5008E07B385C7003685EFF00E
:100990006FF44205418191675D8DE1BF1E2189C5DC
:1009A00093E717001EA18280C207C183F99BC2078B
:1009B000C183CDBF1E2189C593E707101EA1828088
:1009C000C207C18393F7F7EFC207C183C5BF1E21DA
:1009D00089C593E707201EA18280C207C18393F7D0
:1009E000F7DFC207C183C5BF1E2189C593E7074052
:1009F0001EA18280C207C18393F7F7BFC207C183DC
:100A0000C5BF0EA982800A291375F50F828093F75E
:100A1000E50F19C293E71500C207C1831EA98280A2
:100A20005E290A2D42055D8D6D8D220521810D8D7A
:100A3000133515008280611102C002C293D7C5012F
:100A40002AC23EC08247A205A18199CB9247D10715
:100A50003EC29247884321016D8D3335A0008280CC
:100A60009247C181E107EDB7B707002023ACA70289
:100A70008280B707002083A68703854718216390EB
:100A8000F6021C31639CD7023C219A0793E707F8D2
:100A9000B7E600E093F7F70FBA962380F640854655
:100AA000935757003397E600544189CE9387070444
:100AB0008A07B7E600E0B69798C38280EDF33C2141
:100AC0009A07F9B793870706E5B7371702401C4323
:100AD0000E0593F777F05D8D08C38280EFF24FDC4F
:100AE000371702405C4391462A84B18B6385D70057
:100AF000A1466380D708B7376E01938707601CC093
:100B0000B7160240DC42918313F7F700B7070020C5
:100B100093878702BA978C23DC42184093F5F50F30
:100B200093F707083355B70081E73A85EFF08FDA7E
:100B300048C008C448C4B7170240DC438D46AD83A3
:100B4000FD8B13D737008A07F18BD98F13F6370146
:100B500013F7370063F4C600138747FFB707002079
:100B600093874701BA978C23EFF0CFD608C86FF070
:100B7000CFD35C43B777DC02938707C049B799C5E9
:100B8000371702401C4F5D8D08CF8280B717024097
:100B9000984F1345F5FF798D88CF828099C5371717
:100BA00002405C4F5D8D48CF8280B7170240D84F1E
:100BB0001345F5FF798DC8CF8280EFF26FCE1629ED
:100BC000F577FD17F58FF621DA252111D58F1EA9AE
:100BD0005625FD779387379FF58FD6212A842EC01F
:100BE000D58F9625D58FB625D58F5EA55E29C207F0
:100BF000C18393F7F7CF5D8F5AA94800C535B74732
:100C000001409387078082456312F406C2475A2445
:100C1000139517003E9542070E0541873E958C417E
:100C2000635807048605EFF0EFCA930540062AC013
:100C3000EFF04FCA824793144500930540063E8566
:100C4000EFF00FCC5E24C207C18763D507020E0503
:100C50009305400613052503EFF0CFC71D89C98C06
:100C6000C204C18006A461016FF02FC4B24745B72A
:100C70008A0555BF12059305400613052503EFF0BD
:100C80006FC53D89E9BF91C55E250967D98F5EA50E
:100C900082805A25F977FD17F98FD5BF93F5F51F97
:100CA0004EA182800A216D8D3335A0008280EFF243
:100CB0002FBFB707002003A50701B7157A0093855A
:100CC0000520EFF02FC11375F50FB7070020238F14
:100CD000A70293175500898F8A073E950E05B7071F
:100CE0000020239EA7026FF04FBCEFF26FBB37F4DA
:100CF00000E05C40AA85F99B5CC0B707002003D5E3
:100D0000C703EFF02FBB08C8232404001C4093E75F
:100D100017001CC0B7F700E0D843058B75DF984378
:100D2000799B98C36FF06FB8EFF28FB72A84116583
:100D300011118545130505029935930700027C8042
:100D4000371501408D473EC28A85E14713050540AE
:100D50003EC4E93422C637440140B70708006C009E
:100D6000130504803ECA02C8231C0100B93585451D
:100D700013050480093F71016FF02FB3EFF24FB2FA
:100D80007111AE840144635DC402B747014013870B
:100D900007803A859305000432C02937B7470140E0
:100DA00013870780024675D53387840083050700C3
:100DB000138507800504C205C181CD350246E1B720
:100DC000328511016FF06FAE411106C62EC00DCDF8
:100DD0001841AA8705C358417D5511CB8546631B31
:100DE000D70098472300070023A207000545B2401B
:100DF000410182809847824614A39847050798C707
:100E0000D8437D17D8C3DDB705468A85853FF9BF2E
:100E1000011122CC2EC206CE26CA2A848147930510
:100E20000002634506029245BE95838505008DE567
:100E300063D8C70263D4E702198E1305000293F545
:100E400026002AC089C501E7930500032EC0858AC4
:100E5000814495EAB2840DA08507F1B71D8EF1BFDC
:100E60000146E1BF824522853AC832C63EC4A93F49
:100E7000A24732464247FD14E34690FEB2846353D4
:100E800006008144058E63C7E702A6879246338732
:100E9000974036978305070095EDB284634490042C
:100EA000635306000146F2406244D2443305F60023
:100EB000056182801D8FBA8793050003228532C8A1
:100EC0003EC63AC41137B24722474246FD17EDF7F6
:100ED000BA9465BF228532C63EC4FD35A24732466C
:100EE00085076DB78245228532C43EC2F13DFD14AF
:100EF0002246924765B7397106DE22DC26DA3EC209
:100F000032833A8689ED92469307000301476C08C5
:100F1000FC86FD3DF2506254D25421618280AA8445
:100F20003684AE8791CA294701446317E30063D52D
:100F30000500B307B04005448646A3090102130724
:100F40003103938666FC36C49A853E8532CA3AC818
:100F50001AC63EC0EFF0CF9AA546824732434247B9
:100F6000524663D4A600A2463695130505039306A0
:100F7000F7FFA30FA7FE9A853E8532CC3ACA1AC85E
:100F80003EC636C0EFF00F95B24742435247624625
:100F900063F9670401CC29CA9247898BB1C79305CD
:100FA000D002268532C40D3522467D169247918B9C
:100FB00095C306479307100632C4930500032685A0
:100FC000631EF7021135930580072685F53B2246FF
:100FD000090479161647924682452685153D2295C5
:100FE00015BFAA8702478DB782469307D0020144F6
:100FF000A38FF6FE9307E7FF3EC04DBFF133930585
:101000008005E1B70145828001458280130181FDA1
:1010100022D026CE06D22AC4AE82328402C68144B1
:101020008385020089EDA24781C781453E85693BE2
:10103000925002542685F244130181028280930764
:1010400050026388F500224516C88504B53BC242AC
:1010500039A88387120013871200639CB7002245CA
:10106000930550023AC88D3342478504BA828502FF
:1010700045BFD5DB9306B0026389D70463C8F60089
:10108000930630026386D704814705A09306D002F9
:10109000638AD70093060003E398D7FE13872200E4
:1010A000894721A01387220085478306070013067E
:1010B000B0026383C6046341D60213063002638B19
:1010C000C602BA820145A54681A0138722006DBFE2
:1010D000138722009147D1BF1306D0026389C6004F
:1010E00013060003E39FC6FC93E7270031A0050722
:1010F0008547C1BF93E747000507E1B713162500F1
:10110000329506053A95850203860200130706FD0F
:101110009375F70FE3F4B6FE1307E0029946631EDA
:10112000E60085028146A54503860200130606FDFA
:101130001377F60F63F5E50236C603870200130640
:10114000A006630DC70A6343E6021306C0046307E3
:10115000C70A13068006630CC70881452DA813979C
:101160002600BA968606B29685027DBF1306400712
:101170006306C7081306A0076302C7081306C00664
:101180008145631AC700038612008D456314E6008B
:10119000850291458502038602009303000613072A
:1011A000100663C4C300130710049303700663C4DE
:1011B000C30693035006635376189303700463C108
:1011C000C30493055004635BB61613073004E310A1
:1011D000E6EA18409303440016CA230CE1001EC837
:1011E000A30C01000147BE862A862C0849A8038665
:1011F00012008145E311E6FA890271BF8502B1BF91
:1012000093063006E307D6FC63CEC6069306800538
:101210006303D602A9BD930630076304D60463CBEB
:10122000C6029306F0066302D60E9306000793E704
:101230004700E31ED6E29146639FD50A93038400DC
:101240000C40504016CA3AC23EC01EC8AA87014789
:10125000C146B9A0930650076308D60693068007D7
:1012600045BF1840B716000093034400938586429B
:1012700011C3BA85324716CA1EC8BE862A862245C1
:10128000413E0DA091466394D502930384000C4027
:10129000504016CA3AC23EC01EC8AA870547A94692
:1012A00022458D33C243AA941E84D242C9B3B246AA
:1012B0000C4016C836C23AC011042A878546294612
:1012C00022451539AA9461B39146639DD5009303D5
:1012D00084000C40504016CA3AC23EC01EC8AA87BD
:1012E000014775BFB2460C4016C836C23AC0110459
:1012F0002A878146E9B7B24616C80C40414636C235
:101300003AC011042A87814665BF9146639ED50085
:10131000930384000C40504016CA3AC23EC01EC817
:10132000AA870147A146ADBFB2460C4016C836C2D7
:101330003AC011042A878146214659B70C4013064A
:10134000840040403AC22A87224532C83EC02286E5
:10135000B687A94616CA4D39AA944244B9B71301B3
:10136000C1FD2EC832CAAA851008014506C636CC72
:101370003ACE3ED032C05939B24013014102828088
:10138000496E6974204C4953324457202D205768C8
:101390006F20416D204920526573706F6E63652028
:1013A0003D20307825780A0D00000000496E742039
:1013B000547269676765720A0D000000537973748F
:1013C000656D436C6B3A25640D0A000043686970D3
:1013D00049443A253038780D0A0000004C49533210
:1013E0002074656D70202872656720307832362948
:1013F0003D2025640A0D000053696E676C6520541A
:1014000061702064657465637465640A0D00000092
:10141000444F55424C4520546170206465746563A7
:101420007465640A0D000000286E756C6C2900005C
:101430000102030405060708010203040506070864
:10144000006CDC020204060804080C1008101820C6
:101450001020304020406080010203040506070888
:08146000010203040506070860
:00000001FF
